:020000000F28C7
:10000800FE00030E8312AC000408AD000A08AE001F
:100018007F08AF00112D10287325C6007425C7006E
:100028007525C8007625C90083133630840046300C
:060038006B258301C92CB9
:10020000FF1B0A2983137F1883170008840A031928
:10021000FF0A08007F087F398A000408840A03194E
:10022000FF0A8200FC3401340834023415340234ED
:10023000213402342E3402343A3402344734023446
:10024000533402345F3402346B3402347734023472
:10025000833402348F3402349B340234A7340234A2
:10026000B3340234BE340234CA340234D5340234D6
:10027000E0340234EB340234F63402340134033413
:100280000C34033416340334213403342B34033454
:10029000353403343E3403344834033451340334A6
:1002A0005A340334633403346C3403347434033405
:1002B0007D340334853403348C3403349434033470
:1002C0009B340334A2340334A9340334B0340334EC
:1002D000B6340334BC340334C2340334C734033477
:1002E000CC340334D1340334D6340334DA34033415
:1002F000DE340334E2340334E6340334E9340334C3
:10030000EC340334EE340334F1340334F334033483
:10031000F4340334F6340334F7340334F734033459
:10032000F8340334F8340334F8340334F734033442
:10033000F7340334F6340334F4340334F33403343D
:10034000F1340334EE340334EC340334E93403344D
:10035000E6340334E2340334DE340334DA34033471
:10036000D6340334D1340334CC340334C7340334A7
:10037000C2340334BC340334B6340334B0340334ED
:10038000A9340334A23403349B3403349434033447
:100390008C340334853403347D34033474340334AF
:1003A0006C340334633403345A3403345134033427
:1003B000483403343E340334353403342B340334AB
:1003C00021340334163403340C340334013403343D
:1003D000F6340234EB340234E0340234D5340234DF
:1003E000CA340234BE340234B3340234A734023483
:1003F0009B3402348F340234833402347734023431
:100400006B3402345F3402345334023447340234E0
:100410003A3402342E340234213402341534023496
:1004200008340234FC340134F0340134E334013450
:10043000D7340134CA340134BE340134B134013408
:10044000A5340134993401348D34013481340134BC
:1004500075340134693401345D340134513401346C
:10046000453401343A3401342E3401342334013418
:10047000183401340D34013402340134F7340034BB
:10048000EC340034E2340034D7340034CD3400345A
:10049000C3340034BA340034B0340034A7340034E8
:1004A0009E340034953400348C3400348434003469
:1004B0007B340034733400346C34003464340034DE
:1004C0005D340034563400344F3400344834003442
:1004D000423400343C340034363400343134003497
:1004E0002C34003427340034223400341E340034D9
:1004F0001A34003416340034123400340F3400340B
:100500000C3400340A340034073400340534003429
:100510000434003402340034013400340134003433
:10052000003400340034003400340034013400342A
:10053000013400340234003404340034053400340F
:10054000073400340A3400340C3400340F340034DF
:1005500012340034163400341A3400341E3400349B
:1005600022340034273400342C3400343134003445
:10057000363400343C3400344234003448340034DF
:100580004F340034563400345D3400346434003465
:100590006C340034733400347B34003484340034DD
:1005A0008C340034953400349E340034A734003445
:1005B000B0340034BA340034C3340034CD340034A1
:1005C000D7340034E2340034EC340034F7340034EF
:1005D000023401340D34013418340134233401342D
:1005E0002E3401343A340134453401345134013469
:1005F0005D3401346934013475340134813401349B
:100600008D34013499340134A5340134B1340134CA
:10061000BE340134CA340134D7340134E3340134F4
:10062000F0340134F434013483124508803AFF0079
:100630008F307F02031D1E2BFE304402031C292B2A
:1006400083124408023EC40045080318013EF03EF0
:10065000C5008312440E0F39C000450EF039C004A6
:10066000450E0F39C100F030C11D0030C1040F30FC
:100670004405BE0000304505BF004108A300400806
:10068000A2000310A20DA30D2208023EA40023081D
:100690000318013E003EA50081302507FF001230FF
:1006A000240784000318FF0A0021A6000021A700E8
:1006B0004108A9004008A8000310A80DA90D813029
:1006C0002907FF001230280784000318FF0A0021C1
:1006D000AA000021AB00AA09AB09AA0A0319AB0AB8
:1006E00026082A07B80027080318270A2B07B9008D
:1006F0004108A3004008A2000310A20DA30D813001
:100700002307FF001230220784000318FF0A00218C
:10071000A4000021A5001030F0000030F1003908DD
:10072000F3003808F2002A247108FA007008F90072
:1007300083123F08FC003E08FB00ED2483122408CE
:100740007907BC0025080318250A7A07BD003C0874
:100750000339A200A20E15082206CF392206950001
:100760003D08A3003C08A2000310A30CA20C031038
:10077000A30CA20C220893004808C4070318C50A5A
:100780004908C507080083124508803AFF008F30EA
:100790007F02031DCD2BF1304402031CE92B831291
:1007A0004408103EA20045080318013EF03EA30095
:1007B000A209A309A20A0319A30A2208F03EC40051
:1007C00023080318013E0F3EC500FF30C600FF306E
:1007D000F42B8312C51FF52BC409C509C40A0319DC
:1007E000C50A0130C6000030C7004508A300440810
:1007F000A200230DA30CA20C230DA30CA20C220813
:10080000BC002308BD003C080339A200A20E150855
:100810002206CF39220695003D08A3003C08A2001D
:100820000310A30CA20C0310A30CA20C220893002B
:100830000310460DF900470DFA004908FC0048086E
:10084000FB00ED2479088312C4070318C50A7A084F
:10085000C5070800F601F11F342CF009F109F00A70
:100860000319F10AF601F60AF31F3F2CF209F30906
:10087000F20A0319F30A0130F4007408F606F701CE
:10088000F801700871040319762CF501F50AF11BC3
:10089000552C01300310F00DF10DFF3E031D4A2CC5
:1008A0000130F4007408F507472C01300310F70DF0
:1008B000F80DFF3E031D562C71087302031D622CB8
:1008C00070087202031C6B2C7008F2027108031C82
:1008D000F303F302771401300310F10CF00CFF3E28
:1008E000031D6C2C0130F502031D552C76080319ED
:1008F0007E2CF709F809F70A0319F80A7808F100BD
:100900007708F000080083124508803AFF008F3016
:100910007F02031D8D2CFE304402031C982C831291
:100920004408023EC40045080318013EF03EC500DD
:1009300083124508803AFF0088307F02031DA22CF5
:1009400000304402031CAA2CF8308312BC00033090
:10095000BD00AD2C8312BC01BD013C080339F00081
:10096000F00E15087006CF39700695003D08F100AD
:100970003C08F0000310F10CF00C0310F10CF00C2B
:10098000700893004808C4070318C50A4908C5073A
:100990000800831605150430910087140711871588
:1009A00007168712522543252B25831207155F252D
:1009B00083123108B7003008B6003708B500360892
:1009C000B400350DB50CB40C3408013EC800350830
:1009D0000318013E003EC900D72C8312A001A101DB
:1009E000791CF92C7B088312A0070318A10A7C0844
:1009F000A10701300310FB0DFC0DFF3E031DFA2C77
:100A000001300310FA0CF90CFF3E031D012D79088B
:100A10007A04031DF02C83122108FA002008F90043
:100A200008000B1D1F2D871D071A182DC3231E2D0F
:100A30008719071A1D2D14231E2D83240B118312D1
:100A40002F08FF002E088A002D0884002C0E83003A
:100A5000FE0E7E0E090083168716FF309200831269
:100A60001508F0390C3895001513951315129512C9
:100A7000303093008C10FC30920512158C1C3E2DEA
:100A800083168712080083129F131F131F08E33970
:100A900008389F0083161F088F3940389F00831243
:100AA0001F14080083168112011281110108F83900
:100AB000033881008B108B170B178B1608008312DD
:100AC0009F149F18612D1E08B200B3013208B000B8
:100AD0003308B100080064008001840A0406031989
:0E0AE000003404066C2D01340034013400345F
:02400E00D2F0EE
:00000001FF
